:1000000019C020C01FC01EC01DC01CC01BC01AC00C
:1000100019C018C017C016C015C014C013C012C034
:1000200011C010C00FC00EC00DC00CC00BC00AC064
:1000300009C008C011241FBECFEFCDBFDFE3DEBF74
:1000400087D0DEC0DDCFFC019081909528E030E0C4
:1000500081E397FF03C0990F982701C0990F2150A2
:100060003109B9F78181892728E030E091E387FFE2
:1000700003C0880F892701C0880F21503109B9F7C3
:100080000895FF920F931F93CF93DF9300D000D07A
:10009000CDB7DEB78C018AE08093160881E08093AB
:1000A0001308109214088093150888E880931708A5
:1000B0008091150886FFFCCF609318088091150881
:1000C00086FFFCCF83E0809314088DE890E20197CF
:1000D000F1F7000089E880931708F801C801069637
:1000E00022E03091150837FFFCCF3091180831938A
:1000F00020931408E817F907A1F783E08093140808
:1001000010921308F80180818B8381818C83838115
:10011000898384818A83CE01039695DFF82ECE01F0
:10012000019691DFF80192819F110FC021E090E0CC
:100130003581381320E0822F2496CDBFDEBFDF91BA
:10014000CF911F910F91FF90089580E090E0F4CF40
:10015000CF93DF93CDB7DEB72697CDBFDEBF80E468
:100160008093000488E080931604809317048DE642
:1001700095E0809308089093090883E0809307082E
:1001800080EC809306088E01095F1F4F80E2F82EF5
:1001900095E6E92E8091040887FFFCCF8091000846
:1001A0008133C1F76DEFCE0101966BDF892B39F4F6
:1001B000E09202088091040885FFFCCFEBCFFE019E
:1001C0003196819182958F70805D80930208809135
:1001D000040885FFFCCFDF0111978C918F70805D43
:1001E000809302088091040885FFFCCFF0920208FA
:1001F0008091040885FFFCCFE017F10711F7CACF03
:04020000F894FFCFA0
:00000001FF
